{
  "_format": "hh-sol-artifact-1",
  "contractName": "MetaSoccerID",
  "sourceName": "contracts/MetaSoccerID.sol",
  "abi": [
    {
      "inputs": [],
      "stateMutability": "nonpayable",
      "type": "constructor"
    },
    {
      "inputs": [],
      "name": "InvalidShortString",
      "type": "error"
    },
    {
      "inputs": [
        {
          "internalType": "string",
          "name": "str",
          "type": "string"
        }
      ],
      "name": "StringTooLong",
      "type": "error"
    },
    {
      "anonymous": false,
      "inputs": [],
      "name": "EIP712DomainChanged",
      "type": "event"
    },
    {
      "anonymous": false,
      "inputs": [
        {
          "indexed": true,
          "internalType": "address",
          "name": "previousOwner",
          "type": "address"
        },
        {
          "indexed": true,
          "internalType": "address",
          "name": "newOwner",
          "type": "address"
        }
      ],
      "name": "OwnershipTransferred",
      "type": "event"
    },
    {
      "anonymous": false,
      "inputs": [
        {
          "indexed": true,
          "internalType": "address",
          "name": "newSigner",
          "type": "address"
        }
      ],
      "name": "SignerUpdated",
      "type": "event"
    },
    {
      "anonymous": false,
      "inputs": [
        {
          "indexed": true,
          "internalType": "string",
          "name": "username",
          "type": "string"
        },
        {
          "indexed": true,
          "internalType": "address",
          "name": "owner",
          "type": "address"
        }
      ],
      "name": "UsernameRegistered",
      "type": "event"
    },
    {
      "inputs": [],
      "name": "USERNAME_TYPEHASH",
      "outputs": [
        {
          "internalType": "bytes32",
          "name": "",
          "type": "bytes32"
        }
      ],
      "stateMutability": "view",
      "type": "function"
    },
    {
      "inputs": [],
      "name": "authorizedSigner",
      "outputs": [
        {
          "internalType": "address",
          "name": "",
          "type": "address"
        }
      ],
      "stateMutability": "view",
      "type": "function"
    },
    {
      "inputs": [],
      "name": "eip712Domain",
      "outputs": [
        {
          "internalType": "bytes1",
          "name": "fields",
          "type": "bytes1"
        },
        {
          "internalType": "string",
          "name": "name",
          "type": "string"
        },
        {
          "internalType": "string",
          "name": "version",
          "type": "string"
        },
        {
          "internalType": "uint256",
          "name": "chainId",
          "type": "uint256"
        },
        {
          "internalType": "address",
          "name": "verifyingContract",
          "type": "address"
        },
        {
          "internalType": "bytes32",
          "name": "salt",
          "type": "bytes32"
        },
        {
          "internalType": "uint256[]",
          "name": "extensions",
          "type": "uint256[]"
        }
      ],
      "stateMutability": "view",
      "type": "function"
    },
    {
      "inputs": [
        {
          "internalType": "string",
          "name": "username",
          "type": "string"
        }
      ],
      "name": "getAddressByUsername",
      "outputs": [
        {
          "internalType": "address",
          "name": "",
          "type": "address"
        }
      ],
      "stateMutability": "view",
      "type": "function"
    },
    {
      "inputs": [
        {
          "internalType": "string",
          "name": "username",
          "type": "string"
        }
      ],
      "name": "isUsernameAvailable",
      "outputs": [
        {
          "internalType": "bool",
          "name": "",
          "type": "bool"
        }
      ],
      "stateMutability": "view",
      "type": "function"
    },
    {
      "inputs": [],
      "name": "owner",
      "outputs": [
        {
          "internalType": "address",
          "name": "",
          "type": "address"
        }
      ],
      "stateMutability": "view",
      "type": "function"
    },
    {
      "inputs": [
        {
          "internalType": "string",
          "name": "username",
          "type": "string"
        },
        {
          "internalType": "bytes",
          "name": "signature",
          "type": "bytes"
        },
        {
          "internalType": "uint256",
          "name": "signatureExpiration",
          "type": "uint256"
        }
      ],
      "name": "registerUsername",
      "outputs": [],
      "stateMutability": "nonpayable",
      "type": "function"
    },
    {
      "inputs": [],
      "name": "renounceOwnership",
      "outputs": [],
      "stateMutability": "nonpayable",
      "type": "function"
    },
    {
      "inputs": [
        {
          "internalType": "address",
          "name": "newOwner",
          "type": "address"
        }
      ],
      "name": "transferOwnership",
      "outputs": [],
      "stateMutability": "nonpayable",
      "type": "function"
    },
    {
      "inputs": [
        {
          "internalType": "address",
          "name": "newSigner",
          "type": "address"
        }
      ],
      "name": "updateAuthorizedSigner",
      "outputs": [],
      "stateMutability": "nonpayable",
      "type": "function"
    }
  ],
  "bytecode": "0x6101606040523480156200001257600080fd5b506040518060400160405280600c81526020017f4d657461536f63636572494400000000000000000000000000000000000000008152506040518060400160405280600181526020017f31000000000000000000000000000000000000000000000000000000000000008152506200009f620000936200019660201b60201c565b6200019e60201b60201c565b620000b56001836200026260201b90919060201c565b6101208181525050620000d36002826200026260201b90919060201c565b6101408181525050818051906020012060e08181525050808051906020012061010081815250504660a0818152505062000112620002ba60201b60201c565b608081815250503073ffffffffffffffffffffffffffffffffffffffff1660c08173ffffffffffffffffffffffffffffffffffffffff1681525050505033600460006101000a81548173ffffffffffffffffffffffffffffffffffffffff021916908373ffffffffffffffffffffffffffffffffffffffff16021790555062000912565b600033905090565b60008060009054906101000a900473ffffffffffffffffffffffffffffffffffffffff169050816000806101000a81548173ffffffffffffffffffffffffffffffffffffffff021916908373ffffffffffffffffffffffffffffffffffffffff1602179055508173ffffffffffffffffffffffffffffffffffffffff168173ffffffffffffffffffffffffffffffffffffffff167f8be0079c531659141344cd1fd0a4f28419497f9722a3daafe3b4186f6b6457e060405160405180910390a35050565b6000602083511015620002885762000280836200031760201b60201c565b9050620002b4565b826200029a836200038460201b60201c565b6000019081620002ab919062000608565b5060ff60001b90505b92915050565b60007f8b73c3c69bb8fe3d512ecc4cf759cc79239f7b179b0ffacaa9a75d522b39400f60e051610100514630604051602001620002fc95949392919062000760565b60405160208183030381529060405280519060200120905090565b600080829050601f815111156200036757826040517f305a27a90000000000000000000000000000000000000000000000000000000081526004016200035e91906200084c565b60405180910390fd5b8051816200037590620008a2565b60001c1760001b915050919050565b6000819050919050565b600081519050919050565b7f4e487b7100000000000000000000000000000000000000000000000000000000600052604160045260246000fd5b7f4e487b7100000000000000000000000000000000000000000000000000000000600052602260045260246000fd5b600060028204905060018216806200041057607f821691505b602082108103620004265762000425620003c8565b5b50919050565b60008190508160005260206000209050919050565b60006020601f8301049050919050565b600082821b905092915050565b600060088302620004907fffffffffffffffffffffffffffffffffffffffffffffffffffffffffffffffff8262000451565b6200049c868362000451565b95508019841693508086168417925050509392505050565b6000819050919050565b6000819050919050565b6000620004e9620004e3620004dd84620004b4565b620004be565b620004b4565b9050919050565b6000819050919050565b6200050583620004c8565b6200051d6200051482620004f0565b8484546200045e565b825550505050565b600090565b6200053462000525565b62000541818484620004fa565b505050565b5b8181101562000569576200055d6000826200052a565b60018101905062000547565b5050565b601f821115620005b85762000582816200042c565b6200058d8462000441565b810160208510156200059d578190505b620005b5620005ac8562000441565b83018262000546565b50505b505050565b600082821c905092915050565b6000620005dd60001984600802620005bd565b1980831691505092915050565b6000620005f88383620005ca565b9150826002028217905092915050565b62000613826200038e565b67ffffffffffffffff8111156200062f576200062e62000399565b5b6200063b8254620003f7565b620006488282856200056d565b600060209050601f8311600181146200068057600084156200066b578287015190505b620006778582620005ea565b865550620006e7565b601f19841662000690866200042c565b60005b82811015620006ba5784890151825560018201915060208501945060208101905062000693565b86831015620006da5784890151620006d6601f891682620005ca565b8355505b6001600288020188555050505b505050505050565b6000819050919050565b6200070481620006ef565b82525050565b6200071581620004b4565b82525050565b600073ffffffffffffffffffffffffffffffffffffffff82169050919050565b600062000748826200071b565b9050919050565b6200075a816200073b565b82525050565b600060a082019050620007776000830188620006f9565b620007866020830187620006f9565b620007956040830186620006f9565b620007a460608301856200070a565b620007b360808301846200074f565b9695505050505050565b600082825260208201905092915050565b60005b83811015620007ee578082015181840152602081019050620007d1565b60008484015250505050565b6000601f19601f8301169050919050565b600062000818826200038e565b620008248185620007bd565b935062000836818560208601620007ce565b6200084181620007fa565b840191505092915050565b600060208201905081810360008301526200086881846200080b565b905092915050565b600081519050919050565b6000819050602082019050919050565b6000620008998251620006ef565b80915050919050565b6000620008af8262000870565b82620008bb846200087b565b9050620008c8816200088b565b925060208210156200090b57620009067fffffffffffffffffffffffffffffffffffffffffffffffffffffffffffffffff8360200360080262000451565b831692505b5050919050565b60805160a05160c05160e051610100516101205161014051611bef6200096d60003960006105a20152600061056e01526000610e6501526000610e4401526000610b2401526000610b7a01526000610ba30152611bef6000f3fe608060405234801561001057600080fd5b506004361061009e5760003560e01c806384b0196e1161006657806384b0196e146101335780638da5cb5b14610157578063c771909c14610175578063f2fde38b14610193578063f69c6dec146101af5761009e565b80632253e207146100a35780635d777cc6146100c15780636322961d146100dd578063669ed9351461010d578063715018a614610129575b600080fd5b6100ab6101df565b6040516100b89190610fb0565b60405180910390f35b6100db60048036038101906100d691906111fc565b610203565b005b6100f760048036038101906100f29190611287565b610401565b6040516101049190611311565b60405180910390f35b61012760048036038101906101229190611358565b610449565b005b610131610547565b005b61013b61055b565b60405161014e979695949392919061150c565b60405180910390f35b61015f61065d565b60405161016c9190611311565b60405180910390f35b61017d610686565b60405161018a9190611311565b60405180910390f35b6101ad60048036038101906101a89190611358565b6106ac565b005b6101c960048036038101906101c49190611287565b61072f565b6040516101d691906115ab565b60405180910390f35b7fd792cfd8540b432635ba44b1d70921f64423ca0185c605eeaedfbe2837da754e81565b82600073ffffffffffffffffffffffffffffffffffffffff1660038260405161022c9190611602565b908152602001604051809103902060009054906101000a900473ffffffffffffffffffffffffffffffffffffffff1673ffffffffffffffffffffffffffffffffffffffff16146102b1576040517f08c379a00000000000000000000000000000000000000000000000000000000081526004016102a890611665565b60405180910390fd5b814211156102f4576040517f08c379a00000000000000000000000000000000000000000000000000000000081526004016102eb906116d1565b60405180910390fd5b6000339050610305858286866107a5565b610344576040517f08c379a000000000000000000000000000000000000000000000000000000000815260040161033b9061173d565b60405180910390fd5b806003866040516103559190611602565b908152602001604051809103902060006101000a81548173ffffffffffffffffffffffffffffffffffffffff021916908373ffffffffffffffffffffffffffffffffffffffff1602179055508073ffffffffffffffffffffffffffffffffffffffff16856040516103c69190611602565b60405180910390207f928747cd3b0fd842c3278d01d3cd835c3bb83de390e88933021fa6657be6312f60405160405180910390a35050505050565b60006003826040516104139190611602565b908152602001604051809103902060009054906101000a900473ffffffffffffffffffffffffffffffffffffffff169050919050565b610451610871565b600073ffffffffffffffffffffffffffffffffffffffff168173ffffffffffffffffffffffffffffffffffffffff16036104c0576040517f08c379a00000000000000000000000000000000000000000000000000000000081526004016104b7906117a9565b60405180910390fd5b80600460006101000a81548173ffffffffffffffffffffffffffffffffffffffff021916908373ffffffffffffffffffffffffffffffffffffffff1602179055508073ffffffffffffffffffffffffffffffffffffffff167f5553331329228fbd4123164423717a4a7539f6dfa1c3279a923b98fd681a6c7360405160405180910390a250565b61054f610871565b61055960006108ef565b565b60006060806000806000606061059b60017f00000000000000000000000000000000000000000000000000000000000000006109b390919063ffffffff16565b6105cf60027f00000000000000000000000000000000000000000000000000000000000000006109b390919063ffffffff16565b46306000801b600067ffffffffffffffff8111156105f0576105ef610ffa565b5b60405190808252806020026020018201604052801561061e5781602001602082028036833780820191505090505b507f0f00000000000000000000000000000000000000000000000000000000000000959493929190965096509650965096509650965090919293949596565b60008060009054906101000a900473ffffffffffffffffffffffffffffffffffffffff16905090565b600460009054906101000a900473ffffffffffffffffffffffffffffffffffffffff1681565b6106b4610871565b600073ffffffffffffffffffffffffffffffffffffffff168173ffffffffffffffffffffffffffffffffffffffff1603610723576040517f08c379a000000000000000000000000000000000000000000000000000000000815260040161071a9061183b565b60405180910390fd5b61072c816108ef565b50565b60008073ffffffffffffffffffffffffffffffffffffffff166003836040516107589190611602565b908152602001604051809103902060009054906101000a900473ffffffffffffffffffffffffffffffffffffffff1673ffffffffffffffffffffffffffffffffffffffff16149050919050565b6000806108047fd792cfd8540b432635ba44b1d70921f64423ca0185c605eeaedfbe2837da754e878051906020012087866040516020016107e9949392919061185b565b60405160208183030381529060405280519060200120610a63565b905060006108128286610a7d565b9050600460009054906101000a900473ffffffffffffffffffffffffffffffffffffffff1673ffffffffffffffffffffffffffffffffffffffff168173ffffffffffffffffffffffffffffffffffffffff161492505050949350505050565b610879610aa4565b73ffffffffffffffffffffffffffffffffffffffff1661089761065d565b73ffffffffffffffffffffffffffffffffffffffff16146108ed576040517f08c379a00000000000000000000000000000000000000000000000000000000081526004016108e4906118ec565b60405180910390fd5b565b60008060009054906101000a900473ffffffffffffffffffffffffffffffffffffffff169050816000806101000a81548173ffffffffffffffffffffffffffffffffffffffff021916908373ffffffffffffffffffffffffffffffffffffffff1602179055508173ffffffffffffffffffffffffffffffffffffffff168173ffffffffffffffffffffffffffffffffffffffff167f8be0079c531659141344cd1fd0a4f28419497f9722a3daafe3b4186f6b6457e060405160405180910390a35050565b606060ff60001b83146109d0576109c983610aac565b9050610a5d565b8180546109dc9061193b565b80601f0160208091040260200160405190810160405280929190818152602001828054610a089061193b565b8015610a555780601f10610a2a57610100808354040283529160200191610a55565b820191906000526020600020905b815481529060010190602001808311610a3857829003601f168201915b505050505090505b92915050565b6000610a76610a70610b20565b83610bd7565b9050919050565b6000806000610a8c8585610c18565b91509150610a9981610c69565b819250505092915050565b600033905090565b60606000610ab983610dcf565b90506000602067ffffffffffffffff811115610ad857610ad7610ffa565b5b6040519080825280601f01601f191660200182016040528015610b0a5781602001600182028036833780820191505090505b5090508181528360208201528092505050919050565b60007f000000000000000000000000000000000000000000000000000000000000000073ffffffffffffffffffffffffffffffffffffffff163073ffffffffffffffffffffffffffffffffffffffff16148015610b9c57507f000000000000000000000000000000000000000000000000000000000000000046145b15610bc9577f00000000000000000000000000000000000000000000000000000000000000009050610bd4565b610bd1610e1f565b90505b90565b60006040517f190100000000000000000000000000000000000000000000000000000000000081528360028201528260228201526042812091505092915050565b6000806041835103610c595760008060006020860151925060408601519150606086015160001a9050610c4d87828585610eb5565b94509450505050610c62565b60006002915091505b9250929050565b60006004811115610c7d57610c7c61196c565b5b816004811115610c9057610c8f61196c565b5b0315610dcc5760016004811115610caa57610ca961196c565b5b816004811115610cbd57610cbc61196c565b5b03610cfd576040517f08c379a0000000000000000000000000000000000000000000000000000000008152600401610cf4906119e7565b60405180910390fd5b60026004811115610d1157610d1061196c565b5b816004811115610d2457610d2361196c565b5b03610d64576040517f08c379a0000000000000000000000000000000000000000000000000000000008152600401610d5b90611a53565b60405180910390fd5b60036004811115610d7857610d7761196c565b5b816004811115610d8b57610d8a61196c565b5b03610dcb576040517f08c379a0000000000000000000000000000000000000000000000000000000008152600401610dc290611ae5565b60405180910390fd5b5b50565b60008060ff8360001c169050601f811115610e16576040517fb3512b0c00000000000000000000000000000000000000000000000000000000815260040160405180910390fd5b80915050919050565b60007f8b73c3c69bb8fe3d512ecc4cf759cc79239f7b179b0ffacaa9a75d522b39400f7f00000000000000000000000000000000000000000000000000000000000000007f00000000000000000000000000000000000000000000000000000000000000004630604051602001610e9a959493929190611b05565b60405160208183030381529060405280519060200120905090565b6000807f7fffffffffffffffffffffffffffffff5d576e7357a4501ddfe92f46681b20a08360001c1115610ef0576000600391509150610f8e565b600060018787878760405160008152602001604052604051610f159493929190611b74565b6020604051602081039080840390855afa158015610f37573d6000803e3d6000fd5b505050602060405103519050600073ffffffffffffffffffffffffffffffffffffffff168173ffffffffffffffffffffffffffffffffffffffff1603610f8557600060019250925050610f8e565b80600092509250505b94509492505050565b6000819050919050565b610faa81610f97565b82525050565b6000602082019050610fc56000830184610fa1565b92915050565b6000604051905090565b600080fd5b600080fd5b600080fd5b600080fd5b6000601f19601f8301169050919050565b7f4e487b7100000000000000000000000000000000000000000000000000000000600052604160045260246000fd5b61103282610fe9565b810181811067ffffffffffffffff8211171561105157611050610ffa565b5b80604052505050565b6000611064610fcb565b90506110708282611029565b919050565b600067ffffffffffffffff8211156110905761108f610ffa565b5b61109982610fe9565b9050602081019050919050565b82818337600083830152505050565b60006110c86110c384611075565b61105a565b9050828152602081018484840111156110e4576110e3610fe4565b5b6110ef8482856110a6565b509392505050565b600082601f83011261110c5761110b610fdf565b5b813561111c8482602086016110b5565b91505092915050565b600067ffffffffffffffff8211156111405761113f610ffa565b5b61114982610fe9565b9050602081019050919050565b600061116961116484611125565b61105a565b90508281526020810184848401111561118557611184610fe4565b5b6111908482856110a6565b509392505050565b600082601f8301126111ad576111ac610fdf565b5b81356111bd848260208601611156565b91505092915050565b6000819050919050565b6111d9816111c6565b81146111e457600080fd5b50565b6000813590506111f6816111d0565b92915050565b60008060006060848603121561121557611214610fd5565b5b600084013567ffffffffffffffff81111561123357611232610fda565b5b61123f868287016110f7565b935050602084013567ffffffffffffffff8111156112605761125f610fda565b5b61126c86828701611198565b925050604061127d868287016111e7565b9150509250925092565b60006020828403121561129d5761129c610fd5565b5b600082013567ffffffffffffffff8111156112bb576112ba610fda565b5b6112c7848285016110f7565b91505092915050565b600073ffffffffffffffffffffffffffffffffffffffff82169050919050565b60006112fb826112d0565b9050919050565b61130b816112f0565b82525050565b60006020820190506113266000830184611302565b92915050565b611335816112f0565b811461134057600080fd5b50565b6000813590506113528161132c565b92915050565b60006020828403121561136e5761136d610fd5565b5b600061137c84828501611343565b91505092915050565b60007fff0000000000000000000000000000000000000000000000000000000000000082169050919050565b6113ba81611385565b82525050565b600081519050919050565b600082825260208201905092915050565b60005b838110156113fa5780820151818401526020810190506113df565b60008484015250505050565b6000611411826113c0565b61141b81856113cb565b935061142b8185602086016113dc565b61143481610fe9565b840191505092915050565b611448816111c6565b82525050565b600081519050919050565b600082825260208201905092915050565b6000819050602082019050919050565b611483816111c6565b82525050565b6000611495838361147a565b60208301905092915050565b6000602082019050919050565b60006114b98261144e565b6114c38185611459565b93506114ce8361146a565b8060005b838110156114ff5781516114e68882611489565b97506114f1836114a1565b9250506001810190506114d2565b5085935050505092915050565b600060e082019050611521600083018a6113b1565b81810360208301526115338189611406565b905081810360408301526115478188611406565b9050611556606083018761143f565b6115636080830186611302565b61157060a0830185610fa1565b81810360c083015261158281846114ae565b905098975050505050505050565b60008115159050919050565b6115a581611590565b82525050565b60006020820190506115c0600083018461159c565b92915050565b600081905092915050565b60006115dc826113c0565b6115e681856115c6565b93506115f68185602086016113dc565b80840191505092915050565b600061160e82846115d1565b915081905092915050565b7f557365726e616d6520616c72656164792074616b656e00000000000000000000600082015250565b600061164f6016836113cb565b915061165a82611619565b602082019050919050565b6000602082019050818103600083015261167e81611642565b9050919050565b7f5369676e61747572652068617320657870697265640000000000000000000000600082015250565b60006116bb6015836113cb565b91506116c682611685565b602082019050919050565b600060208201905081810360008301526116ea816116ae565b9050919050565b7f496e76616c6964207369676e6174757265000000000000000000000000000000600082015250565b60006117276011836113cb565b9150611732826116f1565b602082019050919050565b600060208201905081810360008301526117568161171a565b9050919050565b7f496e76616c6964207369676e6572206164647265737300000000000000000000600082015250565b60006117936016836113cb565b915061179e8261175d565b602082019050919050565b600060208201905081810360008301526117c281611786565b9050919050565b7f4f776e61626c653a206e6577206f776e657220697320746865207a65726f206160008201527f6464726573730000000000000000000000000000000000000000000000000000602082015250565b60006118256026836113cb565b9150611830826117c9565b604082019050919050565b6000602082019050818103600083015261185481611818565b9050919050565b60006080820190506118706000830187610fa1565b61187d6020830186610fa1565b61188a6040830185611302565b611897606083018461143f565b95945050505050565b7f4f776e61626c653a2063616c6c6572206973206e6f7420746865206f776e6572600082015250565b60006118d66020836113cb565b91506118e1826118a0565b602082019050919050565b60006020820190508181036000830152611905816118c9565b9050919050565b7f4e487b7100000000000000000000000000000000000000000000000000000000600052602260045260246000fd5b6000600282049050600182168061195357607f821691505b6020821081036119665761196561190c565b5b50919050565b7f4e487b7100000000000000000000000000000000000000000000000000000000600052602160045260246000fd5b7f45434453413a20696e76616c6964207369676e61747572650000000000000000600082015250565b60006119d16018836113cb565b91506119dc8261199b565b602082019050919050565b60006020820190508181036000830152611a00816119c4565b9050919050565b7f45434453413a20696e76616c6964207369676e6174757265206c656e67746800600082015250565b6000611a3d601f836113cb565b9150611a4882611a07565b602082019050919050565b60006020820190508181036000830152611a6c81611a30565b9050919050565b7f45434453413a20696e76616c6964207369676e6174757265202773272076616c60008201527f7565000000000000000000000000000000000000000000000000000000000000602082015250565b6000611acf6022836113cb565b9150611ada82611a73565b604082019050919050565b60006020820190508181036000830152611afe81611ac2565b9050919050565b600060a082019050611b1a6000830188610fa1565b611b276020830187610fa1565b611b346040830186610fa1565b611b41606083018561143f565b611b4e6080830184611302565b9695505050505050565b600060ff82169050919050565b611b6e81611b58565b82525050565b6000608082019050611b896000830187610fa1565b611b966020830186611b65565b611ba36040830185610fa1565b611bb06060830184610fa1565b9594505050505056fea2646970667358221220a6e02947ba973a31705bf95ef796695fe78aa8aa804349624a6ba69abe1fa15264736f6c63430008180033",
  "linkReferences": {},
  "deployedLinkReferences": {}
}