{
  "_format": "hh-sol-artifact-1",
  "contractName": "OxFutbolID",
  "sourceName": "contracts/OxFutbolID.sol",
  "abi": [
    {
      "inputs": [
        {
          "internalType": "address",
          "name": "metaSoccerIDAddress",
          "type": "address"
        }
      ],
      "stateMutability": "nonpayable",
      "type": "constructor"
    },
    {
      "inputs": [],
      "name": "InvalidShortString",
      "type": "error"
    },
    {
      "inputs": [
        {
          "internalType": "string",
          "name": "str",
          "type": "string"
        }
      ],
      "name": "StringTooLong",
      "type": "error"
    },
    {
      "anonymous": false,
      "inputs": [],
      "name": "EIP712DomainChanged",
      "type": "event"
    },
    {
      "anonymous": false,
      "inputs": [
        {
          "indexed": true,
          "internalType": "address",
          "name": "previousOwner",
          "type": "address"
        },
        {
          "indexed": true,
          "internalType": "address",
          "name": "newOwner",
          "type": "address"
        }
      ],
      "name": "OwnershipTransferred",
      "type": "event"
    },
    {
      "anonymous": false,
      "inputs": [
        {
          "indexed": true,
          "internalType": "address",
          "name": "newSigner",
          "type": "address"
        }
      ],
      "name": "SignerUpdated",
      "type": "event"
    },
    {
      "anonymous": false,
      "inputs": [
        {
          "indexed": true,
          "internalType": "string",
          "name": "username",
          "type": "string"
        },
        {
          "indexed": true,
          "internalType": "address",
          "name": "owner",
          "type": "address"
        }
      ],
      "name": "UsernameRegistered",
      "type": "event"
    },
    {
      "inputs": [],
      "name": "USERNAME_TYPEHASH",
      "outputs": [
        {
          "internalType": "bytes32",
          "name": "",
          "type": "bytes32"
        }
      ],
      "stateMutability": "view",
      "type": "function"
    },
    {
      "inputs": [],
      "name": "eip712Domain",
      "outputs": [
        {
          "internalType": "bytes1",
          "name": "fields",
          "type": "bytes1"
        },
        {
          "internalType": "string",
          "name": "name",
          "type": "string"
        },
        {
          "internalType": "string",
          "name": "version",
          "type": "string"
        },
        {
          "internalType": "uint256",
          "name": "chainId",
          "type": "uint256"
        },
        {
          "internalType": "address",
          "name": "verifyingContract",
          "type": "address"
        },
        {
          "internalType": "bytes32",
          "name": "salt",
          "type": "bytes32"
        },
        {
          "internalType": "uint256[]",
          "name": "extensions",
          "type": "uint256[]"
        }
      ],
      "stateMutability": "view",
      "type": "function"
    },
    {
      "inputs": [
        {
          "internalType": "string",
          "name": "username",
          "type": "string"
        }
      ],
      "name": "getAddressByUsername",
      "outputs": [
        {
          "internalType": "address",
          "name": "",
          "type": "address"
        }
      ],
      "stateMutability": "view",
      "type": "function"
    },
    {
      "inputs": [
        {
          "internalType": "string",
          "name": "username",
          "type": "string"
        }
      ],
      "name": "isUsernameAvailable",
      "outputs": [
        {
          "internalType": "bool",
          "name": "",
          "type": "bool"
        }
      ],
      "stateMutability": "view",
      "type": "function"
    },
    {
      "inputs": [],
      "name": "owner",
      "outputs": [
        {
          "internalType": "address",
          "name": "",
          "type": "address"
        }
      ],
      "stateMutability": "view",
      "type": "function"
    },
    {
      "inputs": [
        {
          "internalType": "string",
          "name": "username",
          "type": "string"
        },
        {
          "internalType": "address",
          "name": "owner",
          "type": "address"
        },
        {
          "internalType": "bytes",
          "name": "signature",
          "type": "bytes"
        },
        {
          "internalType": "uint256",
          "name": "signatureExpiration",
          "type": "uint256"
        }
      ],
      "name": "registerUsername",
      "outputs": [],
      "stateMutability": "nonpayable",
      "type": "function"
    },
    {
      "inputs": [],
      "name": "renounceOwnership",
      "outputs": [],
      "stateMutability": "nonpayable",
      "type": "function"
    },
    {
      "inputs": [
        {
          "internalType": "address",
          "name": "newOwner",
          "type": "address"
        }
      ],
      "name": "transferOwnership",
      "outputs": [],
      "stateMutability": "nonpayable",
      "type": "function"
    }
  ],
  "bytecode": "0x6101606040523480156200001257600080fd5b50604051620014be380380620014be833981016040819052620000359162000240565b6040518060400160405280600a81526020016913de119d5d189bdb125160b21b815250604051806040016040528060018152602001603160f81b8152506200008c620000866200016760201b60201c565b6200016b565b62000099826001620001bb565b61012052620000aa816002620001bb565b61014052815160208084019190912060e052815190820120610100524660a0526200013860e05161010051604080517f8b73c3c69bb8fe3d512ecc4cf759cc79239f7b179b0ffacaa9a75d522b39400f60208201529081019290925260608201524660808201523060a082015260009060c00160405160208183030381529060405280519060200120905090565b60805250503060c052600380546001600160a01b0319166001600160a01b03929092169190911790556200045b565b3390565b600080546001600160a01b038381166001600160a01b0319831681178455604051919092169283917f8be0079c531659141344cd1fd0a4f28419497f9722a3daafe3b4186f6b6457e09190a35050565b6000602083511015620001db57620001d383620001f4565b9050620001ee565b81620001e8848262000319565b5060ff90505b92915050565b600080829050601f815111156200022b578260405163305a27a960e01b8152600401620002229190620003e5565b60405180910390fd5b8051620002388262000436565b179392505050565b6000602082840312156200025357600080fd5b81516001600160a01b03811681146200026b57600080fd5b9392505050565b634e487b7160e01b600052604160045260246000fd5b600181811c908216806200029d57607f821691505b602082108103620002be57634e487b7160e01b600052602260045260246000fd5b50919050565b601f82111562000314576000816000526020600020601f850160051c81016020861015620002ef5750805b601f850160051c820191505b818110156200031057828155600101620002fb565b5050505b505050565b81516001600160401b0381111562000335576200033562000272565b6200034d8162000346845462000288565b84620002c4565b602080601f8311600181146200038557600084156200036c5750858301515b600019600386901b1c1916600185901b17855562000310565b600085815260208120601f198616915b82811015620003b65788860151825594840194600190910190840162000395565b5085821015620003d55787850151600019600388901b60f8161c191681555b5050505050600190811b01905550565b60006020808352835180602085015260005b818110156200041557858101830151858201604001528201620003f7565b506000604082860101526040601f19601f8301168501019250505092915050565b80516020808301519190811015620002be5760001960209190910360031b1b16919050565b60805160a05160c05160e051610100516101205161014051611008620004b6600039600061027b01526000610250015260006109d3015260006109ab01526000610906015260006109300152600061095a01526110086000f3fe608060405234801561001057600080fd5b50600436106100885760003560e01c80638da5cb5b1161005b5780638da5cb5b14610117578063e914126814610128578063f2fde38b1461013b578063f69c6dec1461014e57600080fd5b80632253e2071461008d5780636322961d146100c7578063715018a6146100f257806384b0196e146100fc575b600080fd5b6100b47fd792cfd8540b432635ba44b1d70921f64423ca0185c605eeaedfbe2837da754e81565b6040519081526020015b60405180910390f35b6100da6100d5366004610d28565b610171565b6040516001600160a01b0390911681526020016100be565b6100fa61022e565b005b610104610242565b6040516100be9796959493929190610db5565b6000546001600160a01b03166100da565b6100fa610136366004610e63565b6102cb565b6100fa610149366004610ef7565b610516565b61016161015c366004610d28565b61058f565b60405190151581526020016100be565b600354604051636322961d60e01b815260009182916001600160a01b0390911690636322961d906101a6908690600401610f14565b602060405180830381865afa1580156101c3573d6000803e3d6000fd5b505050506040513d601f19601f820116820180604052508101906101e79190610f27565b90506001600160a01b038116610225576004836040516102079190610f44565b908152604051908190036020019020546001600160a01b0316610227565b805b9392505050565b610236610644565b610240600061069e565b565b6000606080828080836102767f000000000000000000000000000000000000000000000000000000000000000060016106ee565b6102a17f000000000000000000000000000000000000000000000000000000000000000060026106ee565b60408051600080825260208201909252600f60f81b9b939a50919850469750309650945092509050565b600354604051633da71b7b60e21b815285916001600160a01b03169063f69c6dec906102fb908490600401610f14565b602060405180830381865afa158015610318573d6000803e3d6000fd5b505050506040513d601f19601f8201168201806040525081019061033c9190610f60565b6103865760405162461bcd60e51b81526020600482015260166024820152752ab9b2b93730b6b29030b63932b0b23c903a30b5b2b760511b60448201526064015b60405180910390fd5b60006001600160a01b03166004826040516103a19190610f44565b908152604051908190036020019020546001600160a01b0316146104005760405162461bcd60e51b81526020600482015260166024820152752ab9b2b93730b6b29030b63932b0b23c903a30b5b2b760511b604482015260640161037d565b814211156104485760405162461bcd60e51b815260206004820152601560248201527414da59db985d1d5c99481a185cc8195e1c1a5c9959605a1b604482015260640161037d565b6104548585858561079a565b6104945760405162461bcd60e51b8152602060048201526011602482015270496e76616c6964207369676e617475726560781b604482015260640161037d565b836004866040516104a59190610f44565b90815260405190819003602001812080546001600160a01b039384166001600160a01b0319909116179055908516906104df908790610f44565b604051908190038120907f928747cd3b0fd842c3278d01d3cd835c3bb83de390e88933021fa6657be6312f90600090a35050505050565b61051e610644565b6001600160a01b0381166105835760405162461bcd60e51b815260206004820152602660248201527f4f776e61626c653a206e6577206f776e657220697320746865207a65726f206160448201526564647265737360d01b606482015260840161037d565b61058c8161069e565b50565b600354604051633da71b7b60e21b81526000916001600160a01b03169063f69c6dec906105c0908590600401610f14565b602060405180830381865afa1580156105dd573d6000803e3d6000fd5b505050506040513d601f19601f820116820180604052508101906106019190610f60565b801561063e575060006001600160a01b03166004836040516106239190610f44565b908152604051908190036020019020546001600160a01b0316145b92915050565b6000546001600160a01b031633146102405760405162461bcd60e51b815260206004820181905260248201527f4f776e61626c653a2063616c6c6572206973206e6f7420746865206f776e6572604482015260640161037d565b600080546001600160a01b038381166001600160a01b0319831681178455604051919092169283917f8be0079c531659141344cd1fd0a4f28419497f9722a3daafe3b4186f6b6457e09190a35050565b606060ff83146107085761070183610841565b905061063e565b81805461071490610f82565b80601f016020809104026020016040519081016040528092919081815260200182805461074090610f82565b801561078d5780601f106107625761010080835404028352916020019161078d565b820191906000526020600020905b81548152906001019060200180831161077057829003601f168201915b5050505050905092915050565b6000806108187fd792cfd8540b432635ba44b1d70921f64423ca0185c605eeaedfbe2837da754e878051906020012087866040516020016107fd949392919093845260208401929092526001600160a01b03166040830152606082015260800190565b60405160208183030381529060405280519060200120610880565b9050600061082682866108ad565b6001600160a01b039081169087161492505050949350505050565b6060600061084e836108d1565b604080516020808252818301909252919250600091906020820181803683375050509182525060208101929092525090565b600061063e61088d6108f9565b8360405161190160f01b8152600281019290925260228201526042902090565b60008060006108bc8585610a29565b915091506108c981610a6e565b509392505050565b600060ff8216601f81111561022557604051632cd44ac360e21b815260040160405180910390fd5b6000306001600160a01b037f00000000000000000000000000000000000000000000000000000000000000001614801561095257507f000000000000000000000000000000000000000000000000000000000000000046145b1561097c57507f000000000000000000000000000000000000000000000000000000000000000090565b610a24604080517f8b73c3c69bb8fe3d512ecc4cf759cc79239f7b179b0ffacaa9a75d522b39400f60208201527f0000000000000000000000000000000000000000000000000000000000000000918101919091527f000000000000000000000000000000000000000000000000000000000000000060608201524660808201523060a082015260009060c00160405160208183030381529060405280519060200120905090565b905090565b6000808251604103610a5f5760208301516040840151606085015160001a610a5387828585610bb8565b94509450505050610a67565b506000905060025b9250929050565b6000816004811115610a8257610a82610fbc565b03610a8a5750565b6001816004811115610a9e57610a9e610fbc565b03610aeb5760405162461bcd60e51b815260206004820152601860248201527f45434453413a20696e76616c6964207369676e61747572650000000000000000604482015260640161037d565b6002816004811115610aff57610aff610fbc565b03610b4c5760405162461bcd60e51b815260206004820152601f60248201527f45434453413a20696e76616c6964207369676e6174757265206c656e67746800604482015260640161037d565b6003816004811115610b6057610b60610fbc565b0361058c5760405162461bcd60e51b815260206004820152602260248201527f45434453413a20696e76616c6964207369676e6174757265202773272076616c604482015261756560f01b606482015260840161037d565b6000807f7fffffffffffffffffffffffffffffff5d576e7357a4501ddfe92f46681b20a0831115610bef5750600090506003610c73565b6040805160008082526020820180845289905260ff881692820192909252606081018690526080810185905260019060a0016020604051602081039080840390855afa158015610c43573d6000803e3d6000fd5b5050604051601f1901519150506001600160a01b038116610c6c57600060019250925050610c73565b9150600090505b94509492505050565b634e487b7160e01b600052604160045260246000fd5b600067ffffffffffffffff80841115610cad57610cad610c7c565b604051601f8501601f19908116603f01168101908282118183101715610cd557610cd5610c7c565b81604052809350858152868686011115610cee57600080fd5b858560208301376000602087830101525050509392505050565b600082601f830112610d1957600080fd5b61022783833560208501610c92565b600060208284031215610d3a57600080fd5b813567ffffffffffffffff811115610d5157600080fd5b610d5d84828501610d08565b949350505050565b60005b83811015610d80578181015183820152602001610d68565b50506000910152565b60008151808452610da1816020860160208601610d65565b601f01601f19169290920160200192915050565b60ff60f81b881681526000602060e06020840152610dd660e084018a610d89565b8381036040850152610de8818a610d89565b606085018990526001600160a01b038816608086015260a0850187905284810360c08601528551808252602080880193509091019060005b81811015610e3c57835183529284019291840191600101610e20565b50909c9b505050505050505050505050565b6001600160a01b038116811461058c57600080fd5b60008060008060808587031215610e7957600080fd5b843567ffffffffffffffff80821115610e9157600080fd5b610e9d88838901610d08565b955060208701359150610eaf82610e4e565b90935060408601359080821115610ec557600080fd5b508501601f81018713610ed757600080fd5b610ee687823560208401610c92565b949793965093946060013593505050565b600060208284031215610f0957600080fd5b813561022781610e4e565b6020815260006102276020830184610d89565b600060208284031215610f3957600080fd5b815161022781610e4e565b60008251610f56818460208701610d65565b9190910192915050565b600060208284031215610f7257600080fd5b8151801515811461022757600080fd5b600181811c90821680610f9657607f821691505b602082108103610fb657634e487b7160e01b600052602260045260246000fd5b50919050565b634e487b7160e01b600052602160045260246000fdfea2646970667358221220a0782844670a5486b88b7c8340ecabd5e2692cd8f13d7dd8de32ef166080687864736f6c63430008180033",
  "linkReferences": {},
  "deployedLinkReferences": {}
}